:1009E10002200000022200001408003F0006005B04
:0E09F100004F0066006D007D000700FF0067EC
:1008000080747590FF20965FE52364634522701025
:10081000E52164634520700875A06775B06780475F
:100820000521E521700205200523E523700205223C
:10083000AE20AF217C007D0A1209568E1C8F1DAEA2
:1008400022AF237C007D0A1209568C1E8D1FE51DE8
:1008500025E02408F808E6F5A0E51F25E02408F8BF
:1008600008E6F5B03096FD209798E5234522700EF6
:10087000E5214520700875A03F75B03F8084E521D3
:10088000152170021520E523152370021522AE20D4
:10089000AF217C007D0A1209568E1C8F1DAE22AF3F
:1008A000237C007D0A1209568C1E8D1FE51D25E054
:1008B0002408F808E6F5A0E51F25E02408F808E676
:0A08C000F5B030970302080280F83B
:030000000208CA29
:0C08CA00787FE4F6D8FD75812302091147
:10095600C2D5EC30E709B2D5E4C39DFDE49CFCEEBC
:1009660030E715B2D5E4C39FFFE49EFE12098CC39F
:10097600E49DFDE49CFC800312098C30D507C3E49A
:060986009FFFE49EFE222B
:1008D600020800E493A3F8E493A34003F68001F230
:1008E60008DFF48029E493A3F85407240CC8C33323
:1008F600C4540F4420C8834004F456800146F6DFF2
:10090600E4800B01020408102040809009E1E47E97
:10091600019360BCA3FF543F30E509541FFEE493E6
:10092600A360010ECF54C025E060A840B8E493A3AD
:10093600FAE493A3F8E493A3C8C582C8CAC583CAD8
:10094600F0A3C8C582C8CAC583CADFE9DEE780BE90
:0109FF0000F7
:10098C00BC000BBE0029EF8DF084FFADF022E4CC4F
:10099C00F875F008EF2FFFEE33FEEC33FCEE9DEC18
:1009AC00984005FCEE9DFE0FD5F0E9E4CEFD22ED5E
:1009BC00F8F5F0EE8420D21CFEADF075F008EF2FA8
:1009CC00FFED33FD4007985006D5F0F222C398FD99
:0509DC000FD5F0EA2236
:00000001FF
